S01800005350495F534C415645325F534552564F2E7372656326
S11300000C942A000C9434000C9434000C943400A6
S11300100C9434000C9434000C9434000C9434008C
S11300200C9434000C9434000C9434000C9434007C
S11300300C9434000C9434000C9434000C9434006C
S11300400C9434000C9434000C9434000C9434005C
S11300500C94340011241FBECFE5D8E0DEBFCDBF21
S11300600E9450000C949D000C9400008FB9779B63
S1130070FECF8FB1089580EC8FBD8FB580628FBDA8
S11300808FB582608FBD88E18EBD8EB583608EBDD5
S113009087E893E197BD86BD81B3806381BB0895F2
S11300A00E943B008F9A0F2EFAEFCF2ED12CF02D09
S11300B00F2EF2E2EF2EFF24F394F02D0EE511E063
S11300C0C0E9D1E085E50E9436002FEF39E698E1DA
S11300D0215030409040E1F700C00000853059F4D1
S11300E0DBBCCABC2FEF3BE782E9215030408040A3
S11300F0E1F700C00000FBBCEABC9FEF2BE732E94C
S1130100915020403040E1F700C000001BBD0ABD03
S11301108FEF9BE722E9815090402040E1F700C037
S11301200000DBBDCABD3FEF8BE792E93150804050
S11101309040E1F700C00000C5CFF894FFCF67
S9030000FC
