S01B0000554152545F5350495F4D61737465725F4C5F502E737265635D
S11300000C942A000C943F000C943F000C943F0085
S11300100C943F000C943F000C943F000C943F0060
S11300200C943F000C943F000C943F000C943F0050
S11300300C943F000C943F000C943F000C943F0040
S11300400C943F000C943F000C943F000C943F0030
S11300500C943F0011241FBECFE5D8E0DEBFCDBF16
S113006010E0A0E6B0E0EAE9F1E002C005900D92EC
S1130070A037B107D9F70E9467000C94CB000C9409
S1130080000087E689B988E18AB986E880BD0895C9
S11300905D9BFECF8CB908950F931F93CF93FC0102
S11300A08081882359F08F01C0E00E944800CF5F0F
S11300B0F801EC0FF11D80818111F7CFCF911F91D1
S11300C00F9108958FB9779BFECF8FB108950E9449
S11300D0410080E690E00E944C002FEF83ED90E316
S11300E0215080409040E1F700C00000A89881E0D2
S11300F00E946200A89A2FEF83ED90E32150804084
S11301009040E1F700C00000A89882E00E946200DD
S1130110A89A2FEF83ED90E3215080409040E1F7BF
S113012000C00000A89883E00E946200A89A2FEF04
S113013083ED90E3215080409040E1F700C000003F
S1130140A89884E00E946200A89A2FEF83ED90E3C0
S1130150215080409040E1F700C00000A89885E05D
S11301600E946200A89A2FEF83ED90E32150804013
S11301709040E1F700C00000A99885E00E94620069
S1130180A99A2FEF83ED90E3215080409040E1F74E
S10D019000C000009ECFF894FFCFDA
S113019A4142444F5F4C4153545F50726F0D0A0001
S9030000FC
