S01500005350495F736C6176655F4C5F502E737265634F
S11300000C942A000C9434000C9434000C943400A6
S11300100C9434000C9434000C9434000C9434008C
S11300200C9434000C9434000C9434000C9434007C
S11300300C9434000C9434000C9434000C9434006C
S11300400C9434000C9434000C9434000C9434005C
S11300500C94340011241FBECFE5D8E0DEBFCDBF21
S11300600E9477000C94EC000C9400008FB9779BED
S1130070FECF8FB10895BE9ABC986E9A08958D9A5A
S11300808C9A8FB588648FBD8FB5806C8FBD8EB50B
S113009081608EBD089591E095BBA9982FEF829F52
S11300A0C001112464E670E00E94C4006ABD8FEFB1
S11300B091EE24E0815090402040E1F700C0000020
S11300C0089590E495BBAF982FEF829FC00111244F
S11300D064E670E00E94C4006ABD8FEF91EE24E0F4
S11300E0815090402040E1F700C0000008950E9434
S11300F03B000E943F0014E0D2E0C1E085E50E948D
S113010036002FEF33ED90E3215030409040E1F77B
S113011000C00000813069F495B39C2795BB2FEF94
S113012033ED90E3215030409040E1F700C00000EF
S11301301EC0823069F495B39D2795BB2FEF33ED34
S113014090E3215030409040E1F700C0000015C01A
S1130150833069F485B3812785BB2FEF33ED80E3CA
S1130160215030408040E1F700C00000C7CF843008
S113017021F488EC0E944B00C1CF853009F0BECF3A
S113018088EC0E946100BACF97FB072E16F4009406
S113019007D077FD09D00E94D80007FC05D03EF4B3
S11301A0909581959F4F0895709561957F4F08951F
S11301B0AA1BBB1B51E107C0AA1FBB1FA617B70789
S11301C010F0A61BB70B881F991F5A95A9F78095A5
S10F01D09095BC01CD010895F894FFCF78
S9030000FC
